{
  "_format": "hh-sol-artifact-1",
  "contractName": "HkriTaikooHui",
  "sourceName": "contracts/HkriTaikooHuiNFT.sol",
  "abi": [
    {
      "inputs": [],
      "stateMutability": "nonpayable",
      "type": "constructor"
    },
    {
      "anonymous": false,
      "inputs": [
        {
          "indexed": true,
          "internalType": "address",
          "name": "owner",
          "type": "address"
        },
        {
          "indexed": true,
          "internalType": "address",
          "name": "approved",
          "type": "address"
        },
        {
          "indexed": true,
          "internalType": "uint256",
          "name": "tokenId",
          "type": "uint256"
        }
      ],
      "name": "Approval",
      "type": "event"
    },
    {
      "anonymous": false,
      "inputs": [
        {
          "indexed": true,
          "internalType": "address",
          "name": "owner",
          "type": "address"
        },
        {
          "indexed": true,
          "internalType": "address",
          "name": "operator",
          "type": "address"
        },
        {
          "indexed": false,
          "internalType": "bool",
          "name": "approved",
          "type": "bool"
        }
      ],
      "name": "ApprovalForAll",
      "type": "event"
    },
    {
      "anonymous": false,
      "inputs": [
        {
          "indexed": true,
          "internalType": "address",
          "name": "previousOwner",
          "type": "address"
        },
        {
          "indexed": true,
          "internalType": "address",
          "name": "newOwner",
          "type": "address"
        }
      ],
      "name": "OwnershipTransferred",
      "type": "event"
    },
    {
      "anonymous": false,
      "inputs": [
        {
          "indexed": true,
          "internalType": "address",
          "name": "from",
          "type": "address"
        },
        {
          "indexed": true,
          "internalType": "address",
          "name": "to",
          "type": "address"
        },
        {
          "indexed": true,
          "internalType": "uint256",
          "name": "tokenId",
          "type": "uint256"
        }
      ],
      "name": "Transfer",
      "type": "event"
    },
    {
      "inputs": [
        {
          "internalType": "address",
          "name": "to",
          "type": "address"
        },
        {
          "internalType": "uint256",
          "name": "tokenId",
          "type": "uint256"
        }
      ],
      "name": "approve",
      "outputs": [],
      "stateMutability": "nonpayable",
      "type": "function"
    },
    {
      "inputs": [
        {
          "internalType": "address",
          "name": "owner",
          "type": "address"
        }
      ],
      "name": "balanceOf",
      "outputs": [
        {
          "internalType": "uint256",
          "name": "",
          "type": "uint256"
        }
      ],
      "stateMutability": "view",
      "type": "function"
    },
    {
      "inputs": [
        {
          "internalType": "uint256",
          "name": "tokenId",
          "type": "uint256"
        }
      ],
      "name": "getApproved",
      "outputs": [
        {
          "internalType": "address",
          "name": "",
          "type": "address"
        }
      ],
      "stateMutability": "view",
      "type": "function"
    },
    {
      "inputs": [
        {
          "internalType": "address",
          "name": "owner",
          "type": "address"
        },
        {
          "internalType": "address",
          "name": "operator",
          "type": "address"
        }
      ],
      "name": "isApprovedForAll",
      "outputs": [
        {
          "internalType": "bool",
          "name": "",
          "type": "bool"
        }
      ],
      "stateMutability": "view",
      "type": "function"
    },
    {
      "inputs": [],
      "name": "name",
      "outputs": [
        {
          "internalType": "string",
          "name": "",
          "type": "string"
        }
      ],
      "stateMutability": "view",
      "type": "function"
    },
    {
      "inputs": [],
      "name": "owner",
      "outputs": [
        {
          "internalType": "address",
          "name": "",
          "type": "address"
        }
      ],
      "stateMutability": "view",
      "type": "function"
    },
    {
      "inputs": [
        {
          "internalType": "uint256",
          "name": "tokenId",
          "type": "uint256"
        }
      ],
      "name": "ownerOf",
      "outputs": [
        {
          "internalType": "address",
          "name": "",
          "type": "address"
        }
      ],
      "stateMutability": "view",
      "type": "function"
    },
    {
      "inputs": [],
      "name": "renounceOwnership",
      "outputs": [],
      "stateMutability": "nonpayable",
      "type": "function"
    },
    {
      "inputs": [
        {
          "internalType": "address",
          "name": "to",
          "type": "address"
        },
        {
          "internalType": "string",
          "name": "uri",
          "type": "string"
        }
      ],
      "name": "safeMint",
      "outputs": [],
      "stateMutability": "nonpayable",
      "type": "function"
    },
    {
      "inputs": [
        {
          "internalType": "address",
          "name": "from",
          "type": "address"
        },
        {
          "internalType": "address",
          "name": "to",
          "type": "address"
        },
        {
          "internalType": "uint256",
          "name": "tokenId",
          "type": "uint256"
        }
      ],
      "name": "safeTransferFrom",
      "outputs": [],
      "stateMutability": "nonpayable",
      "type": "function"
    },
    {
      "inputs": [
        {
          "internalType": "address",
          "name": "from",
          "type": "address"
        },
        {
          "internalType": "address",
          "name": "to",
          "type": "address"
        },
        {
          "internalType": "uint256",
          "name": "tokenId",
          "type": "uint256"
        },
        {
          "internalType": "bytes",
          "name": "_data",
          "type": "bytes"
        }
      ],
      "name": "safeTransferFrom",
      "outputs": [],
      "stateMutability": "nonpayable",
      "type": "function"
    },
    {
      "inputs": [
        {
          "internalType": "address",
          "name": "operator",
          "type": "address"
        },
        {
          "internalType": "bool",
          "name": "approved",
          "type": "bool"
        }
      ],
      "name": "setApprovalForAll",
      "outputs": [],
      "stateMutability": "nonpayable",
      "type": "function"
    },
    {
      "inputs": [
        {
          "internalType": "bytes4",
          "name": "interfaceId",
          "type": "bytes4"
        }
      ],
      "name": "supportsInterface",
      "outputs": [
        {
          "internalType": "bool",
          "name": "",
          "type": "bool"
        }
      ],
      "stateMutability": "view",
      "type": "function"
    },
    {
      "inputs": [],
      "name": "symbol",
      "outputs": [
        {
          "internalType": "string",
          "name": "",
          "type": "string"
        }
      ],
      "stateMutability": "view",
      "type": "function"
    },
    {
      "inputs": [
        {
          "internalType": "uint256",
          "name": "tokenId",
          "type": "uint256"
        }
      ],
      "name": "tokenURI",
      "outputs": [
        {
          "internalType": "string",
          "name": "",
          "type": "string"
        }
      ],
      "stateMutability": "view",
      "type": "function"
    },
    {
      "inputs": [
        {
          "internalType": "address",
          "name": "from",
          "type": "address"
        },
        {
          "internalType": "address",
          "name": "to",
          "type": "address"
        },
        {
          "internalType": "uint256",
          "name": "tokenId",
          "type": "uint256"
        }
      ],
      "name": "transferFrom",
      "outputs": [],
      "stateMutability": "nonpayable",
      "type": "function"
    },
    {
      "inputs": [
        {
          "internalType": "address",
          "name": "newOwner",
          "type": "address"
        }
      ],
      "name": "transferOwnership",
      "outputs": [],
      "stateMutability": "nonpayable",
      "type": "function"
    }
  ],
  "bytecode": "0x60806040523480156200001157600080fd5b506040518060400160405280600d81526020017f486b72695461696b6f6f487569000000000000000000000000000000000000008152506040518060400160405280600381526020017f546f72000000000000000000000000000000000000000000000000000000000081525081600090805190602001906200009692919062000171565b508060019080519060200190620000af92919062000171565b5050506000620000c46200016960201b60201c565b905080600760006101000a81548173ffffffffffffffffffffffffffffffffffffffff021916908373ffffffffffffffffffffffffffffffffffffffff1602179055508073ffffffffffffffffffffffffffffffffffffffff16600073ffffffffffffffffffffffffffffffffffffffff167f8be0079c531659141344cd1fd0a4f28419497f9722a3daafe3b4186f6b6457e060405160405180910390a35062000286565b600033905090565b8280546200017f9062000221565b90600052602060002090601f016020900481019282620001a35760008555620001ef565b82601f10620001be57805160ff1916838001178555620001ef565b82800160010185558215620001ef579182015b82811115620001ee578251825591602001919060010190620001d1565b5b509050620001fe919062000202565b5090565b5b808211156200021d57600081600090555060010162000203565b5090565b600060028204905060018216806200023a57607f821691505b6020821081141562000251576200025062000257565b5b50919050565b7f4e487b7100000000000000000000000000000000000000000000000000000000600052602260045260246000fd5b6130ce80620002966000396000f3fe608060405234801561001057600080fd5b506004361061010b5760003560e01c8063715018a6116100a2578063b88d4fde11610071578063b88d4fde146102a4578063c87b56dd146102c0578063d204c45e146102f0578063e985e9c51461030c578063f2fde38b1461033c5761010b565b8063715018a6146102425780638da5cb5b1461024c57806395d89b411461026a578063a22cb465146102885761010b565b806323b872dd116100de57806323b872dd146101aa57806342842e0e146101c65780636352211e146101e257806370a08231146102125761010b565b806301ffc9a71461011057806306fdde0314610140578063081812fc1461015e578063095ea7b31461018e575b600080fd5b61012a6004803603810190610125919061207d565b610358565b60405161013791906124c9565b60405180910390f35b61014861043a565b60405161015591906124e4565b60405180910390f35b610178600480360381019061017391906120cf565b6104cc565b6040516101859190612462565b60405180910390f35b6101a860048036038101906101a39190612041565b610551565b005b6101c460048036038101906101bf9190611ee7565b610669565b005b6101e060048036038101906101db9190611ee7565b6106c9565b005b6101fc60048036038101906101f791906120cf565b6106e9565b6040516102099190612462565b60405180910390f35b61022c60048036038101906102279190611e82565b61079b565b6040516102399190612746565b60405180910390f35b61024a610853565b005b610254610990565b6040516102619190612462565b60405180910390f35b6102726109ba565b60405161027f91906124e4565b60405180910390f35b6102a2600480360381019061029d9190611fb1565b610a4c565b005b6102be60048036038101906102b99190611f36565b610bcd565b005b6102da60048036038101906102d591906120cf565b610c2f565b6040516102e791906124e4565b60405180910390f35b61030a60048036038101906103059190611fed565b610c41565b005b61032660048036038101906103219190611eab565b610cee565b60405161033391906124c9565b60405180910390f35b61035660048036038101906103519190611e82565b610d82565b005b60007f80ac58cd000000000000000000000000000000000000000000000000000000007bffffffffffffffffffffffffffffffffffffffffffffffffffffffff1916827bffffffffffffffffffffffffffffffffffffffffffffffffffffffff1916148061042357507f5b5e139f000000000000000000000000000000000000000000000000000000007bffffffffffffffffffffffffffffffffffffffffffffffffffffffff1916827bffffffffffffffffffffffffffffffffffffffffffffffffffffffff1916145b80610433575061043282610f2e565b5b9050919050565b6060600080546104499061299c565b80601f01602080910402602001604051908101604052809291908181526020018280546104759061299c565b80156104c25780601f10610497576101008083540402835291602001916104c2565b820191906000526020600020905b8154815290600101906020018083116104a557829003601f168201915b5050505050905090565b60006104d782610f98565b610516576040517f08c379a000000000000000000000000000000000000000000000000000000000815260040161050d90612686565b60405180910390fd5b6004600083815260200190815260200160002060009054906101000a900473ffffffffffffffffffffffffffffffffffffffff169050919050565b600061055c826106e9565b90508073ffffffffffffffffffffffffffffffffffffffff168373ffffffffffffffffffffffffffffffffffffffff1614156105cd576040517f08c379a00000000000000000000000000000000000000000000000000000000081526004016105c490612706565b60405180910390fd5b8073ffffffffffffffffffffffffffffffffffffffff166105ec611004565b73ffffffffffffffffffffffffffffffffffffffff16148061061b575061061a81610615611004565b610cee565b5b61065a576040517f08c379a0000000000000000000000000000000000000000000000000000000008152600401610651906125c6565b60405180910390fd5b610664838361100c565b505050565b61067a610674611004565b826110c5565b6106b9576040517f08c379a00000000000000000000000000000000000000000000000000000000081526004016106b090612726565b60405180910390fd5b6106c48383836111a3565b505050565b6106e483838360405180602001604052806000815250610bcd565b505050565b6000806002600084815260200190815260200160002060009054906101000a900473ffffffffffffffffffffffffffffffffffffffff169050600073ffffffffffffffffffffffffffffffffffffffff168173ffffffffffffffffffffffffffffffffffffffff161415610792576040517f08c379a000000000000000000000000000000000000000000000000000000000815260040161078990612606565b60405180910390fd5b80915050919050565b60008073ffffffffffffffffffffffffffffffffffffffff168273ffffffffffffffffffffffffffffffffffffffff16141561080c576040517f08c379a0000000000000000000000000000000000000000000000000000000008152600401610803906125e6565b60405180910390fd5b600360008373ffffffffffffffffffffffffffffffffffffffff1673ffffffffffffffffffffffffffffffffffffffff168152602001908152602001600020549050919050565b61085b611004565b73ffffffffffffffffffffffffffffffffffffffff16610879610990565b73ffffffffffffffffffffffffffffffffffffffff16146108cf576040517f08c379a00000000000000000000000000000000000000000000000000000000081526004016108c6906126a6565b60405180910390fd5b600073ffffffffffffffffffffffffffffffffffffffff16600760009054906101000a900473ffffffffffffffffffffffffffffffffffffffff1673ffffffffffffffffffffffffffffffffffffffff167f8be0079c531659141344cd1fd0a4f28419497f9722a3daafe3b4186f6b6457e060405160405180910390a36000600760006101000a81548173ffffffffffffffffffffffffffffffffffffffff021916908373ffffffffffffffffffffffffffffffffffffffff160217905550565b6000600760009054906101000a900473ffffffffffffffffffffffffffffffffffffffff16905090565b6060600180546109c99061299c565b80601f01602080910402602001604051908101604052809291908181526020018280546109f59061299c565b8015610a425780601f10610a1757610100808354040283529160200191610a42565b820191906000526020600020905b815481529060010190602001808311610a2557829003601f168201915b5050505050905090565b610a54611004565b73ffffffffffffffffffffffffffffffffffffffff168273ffffffffffffffffffffffffffffffffffffffff161415610ac2576040517f08c379a0000000000000000000000000000000000000000000000000000000008152600401610ab990612586565b60405180910390fd5b8060056000610acf611004565b73ffffffffffffffffffffffffffffffffffffffff1673ffffffffffffffffffffffffffffffffffffffff16815260200190815260200160002060008473ffffffffffffffffffffffffffffffffffffffff1673ffffffffffffffffffffffffffffffffffffffff16815260200190815260200160002060006101000a81548160ff0219169083151502179055508173ffffffffffffffffffffffffffffffffffffffff16610b7c611004565b73ffffffffffffffffffffffffffffffffffffffff167f17307eab39ab6107e8899845ad3d59bd9653f200f220920489ca2b5937696c3183604051610bc191906124c9565b60405180910390a35050565b610bde610bd8611004565b836110c5565b610c1d576040517f08c379a0000000000000000000000000000000000000000000000000000000008152600401610c1490612726565b60405180910390fd5b610c29848484846113ff565b50505050565b6060610c3a8261145b565b9050919050565b610c49611004565b73ffffffffffffffffffffffffffffffffffffffff16610c67610990565b73ffffffffffffffffffffffffffffffffffffffff1614610cbd576040517f08c379a0000000000000000000000000000000000000000000000000000000008152600401610cb4906126a6565b60405180910390fd5b6000610cc960086115ad565b9050610cd560086115bb565b610cdf83826115d1565b610ce981836115ef565b505050565b6000600560008473ffffffffffffffffffffffffffffffffffffffff1673ffffffffffffffffffffffffffffffffffffffff16815260200190815260200160002060008373ffffffffffffffffffffffffffffffffffffffff1673ffffffffffffffffffffffffffffffffffffffff16815260200190815260200160002060009054906101000a900460ff16905092915050565b610d8a611004565b73ffffffffffffffffffffffffffffffffffffffff16610da8610990565b73ffffffffffffffffffffffffffffffffffffffff1614610dfe576040517f08c379a0000000000000000000000000000000000000000000000000000000008152600401610df5906126a6565b60405180910390fd5b600073ffffffffffffffffffffffffffffffffffffffff168173ffffffffffffffffffffffffffffffffffffffff161415610e6e576040517f08c379a0000000000000000000000000000000000000000000000000000000008152600401610e6590612526565b60405180910390fd5b8073ffffffffffffffffffffffffffffffffffffffff16600760009054906101000a900473ffffffffffffffffffffffffffffffffffffffff1673ffffffffffffffffffffffffffffffffffffffff167f8be0079c531659141344cd1fd0a4f28419497f9722a3daafe3b4186f6b6457e060405160405180910390a380600760006101000a81548173ffffffffffffffffffffffffffffffffffffffff021916908373ffffffffffffffffffffffffffffffffffffffff16021790555050565b60007f01ffc9a7000000000000000000000000000000000000000000000000000000007bffffffffffffffffffffffffffffffffffffffffffffffffffffffff1916827bffffffffffffffffffffffffffffffffffffffffffffffffffffffff1916149050919050565b60008073ffffffffffffffffffffffffffffffffffffffff166002600084815260200190815260200160002060009054906101000a900473ffffffffffffffffffffffffffffffffffffffff1673ffffffffffffffffffffffffffffffffffffffff1614159050919050565b600033905090565b816004600083815260200190815260200160002060006101000a81548173ffffffffffffffffffffffffffffffffffffffff021916908373ffffffffffffffffffffffffffffffffffffffff160217905550808273ffffffffffffffffffffffffffffffffffffffff1661107f836106e9565b73ffffffffffffffffffffffffffffffffffffffff167f8c5be1e5ebec7d5bd14f71427d1e84f3dd0314c0f7b2291e5b200ac8c7c3b92560405160405180910390a45050565b60006110d082610f98565b61110f576040517f08c379a0000000000000000000000000000000000000000000000000000000008152600401611106906125a6565b60405180910390fd5b600061111a836106e9565b90508073ffffffffffffffffffffffffffffffffffffffff168473ffffffffffffffffffffffffffffffffffffffff16148061118957508373ffffffffffffffffffffffffffffffffffffffff16611171846104cc565b73ffffffffffffffffffffffffffffffffffffffff16145b8061119a57506111998185610cee565b5b91505092915050565b8273ffffffffffffffffffffffffffffffffffffffff166111c3826106e9565b73ffffffffffffffffffffffffffffffffffffffff1614611219576040517f08c379a0000000000000000000000000000000000000000000000000000000008152600401611210906126c6565b60405180910390fd5b600073ffffffffffffffffffffffffffffffffffffffff168273ffffffffffffffffffffffffffffffffffffffff161415611289576040517f08c379a000000000000000000000000000000000000000000000000000000000815260040161128090612566565b60405180910390fd5b611294838383611663565b61129f60008261100c565b6001600360008573ffffffffffffffffffffffffffffffffffffffff1673ffffffffffffffffffffffffffffffffffffffff16815260200190815260200160002060008282546112ef91906128b2565b925050819055506001600360008473ffffffffffffffffffffffffffffffffffffffff1673ffffffffffffffffffffffffffffffffffffffff1681526020019081526020016000206000828254611346919061282b565b92505081905550816002600083815260200190815260200160002060006101000a81548173ffffffffffffffffffffffffffffffffffffffff021916908373ffffffffffffffffffffffffffffffffffffffff160217905550808273ffffffffffffffffffffffffffffffffffffffff168473ffffffffffffffffffffffffffffffffffffffff167fddf252ad1be2c89b69c2b068fc378daa952ba7f163c4a11628f55a4df523b3ef60405160405180910390a4505050565b61140a8484846111a3565b61141684848484611668565b611455576040517f08c379a000000000000000000000000000000000000000000000000000000000815260040161144c90612506565b60405180910390fd5b50505050565b606061146682610f98565b6114a5576040517f08c379a000000000000000000000000000000000000000000000000000000000815260040161149c90612666565b60405180910390fd5b60006006600084815260200190815260200160002080546114c59061299c565b80601f01602080910402602001604051908101604052809291908181526020018280546114f19061299c565b801561153e5780601f106115135761010080835404028352916020019161153e565b820191906000526020600020905b81548152906001019060200180831161152157829003601f168201915b50505050509050600061154f6117ff565b90506000815114156115655781925050506115a8565b60008251111561159a57808260405160200161158292919061243e565b604051602081830303815290604052925050506115a8565b6115a384611816565b925050505b919050565b600081600001549050919050565b6001816000016000828254019250508190555050565b6115eb8282604051806020016040528060008152506118bd565b5050565b6115f882610f98565b611637576040517f08c379a000000000000000000000000000000000000000000000000000000000815260040161162e90612626565b60405180910390fd5b8060066000848152602001908152602001600020908051906020019061165e929190611ca6565b505050565b505050565b60006116898473ffffffffffffffffffffffffffffffffffffffff16611918565b156117f2578373ffffffffffffffffffffffffffffffffffffffff1663150b7a026116b2611004565b8786866040518563ffffffff1660e01b81526004016116d4949392919061247d565b602060405180830381600087803b1580156116ee57600080fd5b505af192505050801561171f57506040513d601f19601f8201168201806040525081019061171c91906120a6565b60015b6117a2573d806000811461174f576040519150601f19603f3d011682016040523d82523d6000602084013e611754565b606091505b5060008151141561179a576040517f08c379a000000000000000000000000000000000000000000000000000000000815260040161179190612506565b60405180910390fd5b805181602001fd5b63150b7a0260e01b7bffffffffffffffffffffffffffffffffffffffffffffffffffffffff1916817bffffffffffffffffffffffffffffffffffffffffffffffffffffffff1916149150506117f7565b600190505b949350505050565b606060405180602001604052806000815250905090565b606061182182610f98565b611860576040517f08c379a0000000000000000000000000000000000000000000000000000000008152600401611857906126e6565b60405180910390fd5b600061186a6117ff565b9050600081511161188a57604051806020016040528060008152506118b5565b806118948461192b565b6040516020016118a592919061243e565b6040516020818303038152906040525b915050919050565b6118c78383611ad8565b6118d46000848484611668565b611913576040517f08c379a000000000000000000000000000000000000000000000000000000000815260040161190a90612506565b60405180910390fd5b505050565b600080823b905060008111915050919050565b60606000821415611973576040518060400160405280600181526020017f30000000000000000000000000000000000000000000000000000000000000008152509050611ad3565b600082905060005b600082146119a557808061198e906129ff565b915050600a8261199e9190612881565b915061197b565b60008167ffffffffffffffff8111156119e7577f4e487b7100000000000000000000000000000000000000000000000000000000600052604160045260246000fd5b6040519080825280601f01601f191660200182016040528015611a195781602001600182028036833780820191505090505b5090505b60008514611acc57600182611a3291906128b2565b9150600a85611a419190612a48565b6030611a4d919061282b565b60f81b818381518110611a89577f4e487b7100000000000000000000000000000000000000000000000000000000600052603260045260246000fd5b60200101907effffffffffffffffffffffffffffffffffffffffffffffffffffffffffffff1916908160001a905350600a85611ac59190612881565b9450611a1d565b8093505050505b919050565b600073ffffffffffffffffffffffffffffffffffffffff168273ffffffffffffffffffffffffffffffffffffffff161415611b48576040517f08c379a0000000000000000000000000000000000000000000000000000000008152600401611b3f90612646565b60405180910390fd5b611b5181610f98565b15611b91576040517f08c379a0000000000000000000000000000000000000000000000000000000008152600401611b8890612546565b60405180910390fd5b611b9d60008383611663565b6001600360008473ffffffffffffffffffffffffffffffffffffffff1673ffffffffffffffffffffffffffffffffffffffff1681526020019081526020016000206000828254611bed919061282b565b92505081905550816002600083815260200190815260200160002060006101000a81548173ffffffffffffffffffffffffffffffffffffffff021916908373ffffffffffffffffffffffffffffffffffffffff160217905550808273ffffffffffffffffffffffffffffffffffffffff16600073ffffffffffffffffffffffffffffffffffffffff167fddf252ad1be2c89b69c2b068fc378daa952ba7f163c4a11628f55a4df523b3ef60405160405180910390a45050565b828054611cb29061299c565b90600052602060002090601f016020900481019282611cd45760008555611d1b565b82601f10611ced57805160ff1916838001178555611d1b565b82800160010185558215611d1b579182015b82811115611d1a578251825591602001919060010190611cff565b5b509050611d289190611d2c565b5090565b5b80821115611d45576000816000905550600101611d2d565b5090565b6000611d5c611d5784612786565b612761565b905082815260208101848484011115611d7457600080fd5b611d7f84828561295a565b509392505050565b6000611d9a611d95846127b7565b612761565b905082815260208101848484011115611db257600080fd5b611dbd84828561295a565b509392505050565b600081359050611dd48161303c565b92915050565b600081359050611de981613053565b92915050565b600081359050611dfe8161306a565b92915050565b600081519050611e138161306a565b92915050565b600082601f830112611e2a57600080fd5b8135611e3a848260208601611d49565b91505092915050565b600082601f830112611e5457600080fd5b8135611e64848260208601611d87565b91505092915050565b600081359050611e7c81613081565b92915050565b600060208284031215611e9457600080fd5b6000611ea284828501611dc5565b91505092915050565b60008060408385031215611ebe57600080fd5b6000611ecc85828601611dc5565b9250506020611edd85828601611dc5565b9150509250929050565b600080600060608486031215611efc57600080fd5b6000611f0a86828701611dc5565b9350506020611f1b86828701611dc5565b9250506040611f2c86828701611e6d565b9150509250925092565b60008060008060808587031215611f4c57600080fd5b6000611f5a87828801611dc5565b9450506020611f6b87828801611dc5565b9350506040611f7c87828801611e6d565b925050606085013567ffffffffffffffff811115611f9957600080fd5b611fa587828801611e19565b91505092959194509250565b60008060408385031215611fc457600080fd5b6000611fd285828601611dc5565b9250506020611fe385828601611dda565b9150509250929050565b6000806040838503121561200057600080fd5b600061200e85828601611dc5565b925050602083013567ffffffffffffffff81111561202b57600080fd5b61203785828601611e43565b9150509250929050565b6000806040838503121561205457600080fd5b600061206285828601611dc5565b925050602061207385828601611e6d565b9150509250929050565b60006020828403121561208f57600080fd5b600061209d84828501611def565b91505092915050565b6000602082840312156120b857600080fd5b60006120c684828501611e04565b91505092915050565b6000602082840312156120e157600080fd5b60006120ef84828501611e6d565b91505092915050565b612101816128e6565b82525050565b612110816128f8565b82525050565b6000612121826127e8565b61212b81856127fe565b935061213b818560208601612969565b61214481612b35565b840191505092915050565b600061215a826127f3565b612164818561280f565b9350612174818560208601612969565b61217d81612b35565b840191505092915050565b6000612193826127f3565b61219d8185612820565b93506121ad818560208601612969565b80840191505092915050565b60006121c660328361280f565b91506121d182612b46565b604082019050919050565b60006121e960268361280f565b91506121f482612b95565b604082019050919050565b600061220c601c8361280f565b915061221782612be4565b602082019050919050565b600061222f60248361280f565b915061223a82612c0d565b604082019050919050565b600061225260198361280f565b915061225d82612c5c565b602082019050919050565b6000612275602c8361280f565b915061228082612c85565b604082019050919050565b600061229860388361280f565b91506122a382612cd4565b604082019050919050565b60006122bb602a8361280f565b91506122c682612d23565b604082019050919050565b60006122de60298361280f565b91506122e982612d72565b604082019050919050565b6000612301602e8361280f565b915061230c82612dc1565b604082019050919050565b600061232460208361280f565b915061232f82612e10565b602082019050919050565b600061234760318361280f565b915061235282612e39565b604082019050919050565b600061236a602c8361280f565b915061237582612e88565b604082019050919050565b600061238d60208361280f565b915061239882612ed7565b602082019050919050565b60006123b060298361280f565b91506123bb82612f00565b604082019050919050565b60006123d3602f8361280f565b91506123de82612f4f565b604082019050919050565b60006123f660218361280f565b915061240182612f9e565b604082019050919050565b600061241960318361280f565b915061242482612fed565b604082019050919050565b61243881612950565b82525050565b600061244a8285612188565b91506124568284612188565b91508190509392505050565b600060208201905061247760008301846120f8565b92915050565b600060808201905061249260008301876120f8565b61249f60208301866120f8565b6124ac604083018561242f565b81810360608301526124be8184612116565b905095945050505050565b60006020820190506124de6000830184612107565b92915050565b600060208201905081810360008301526124fe818461214f565b905092915050565b6000602082019050818103600083015261251f816121b9565b9050919050565b6000602082019050818103600083015261253f816121dc565b9050919050565b6000602082019050818103600083015261255f816121ff565b9050919050565b6000602082019050818103600083015261257f81612222565b9050919050565b6000602082019050818103600083015261259f81612245565b9050919050565b600060208201905081810360008301526125bf81612268565b9050919050565b600060208201905081810360008301526125df8161228b565b9050919050565b600060208201905081810360008301526125ff816122ae565b9050919050565b6000602082019050818103600083015261261f816122d1565b9050919050565b6000602082019050818103600083015261263f816122f4565b9050919050565b6000602082019050818103600083015261265f81612317565b9050919050565b6000602082019050818103600083015261267f8161233a565b9050919050565b6000602082019050818103600083015261269f8161235d565b9050919050565b600060208201905081810360008301526126bf81612380565b9050919050565b600060208201905081810360008301526126df816123a3565b9050919050565b600060208201905081810360008301526126ff816123c6565b9050919050565b6000602082019050818103600083015261271f816123e9565b9050919050565b6000602082019050818103600083015261273f8161240c565b9050919050565b600060208201905061275b600083018461242f565b92915050565b600061276b61277c565b905061277782826129ce565b919050565b6000604051905090565b600067ffffffffffffffff8211156127a1576127a0612b06565b5b6127aa82612b35565b9050602081019050919050565b600067ffffffffffffffff8211156127d2576127d1612b06565b5b6127db82612b35565b9050602081019050919050565b600081519050919050565b600081519050919050565b600082825260208201905092915050565b600082825260208201905092915050565b600081905092915050565b600061283682612950565b915061284183612950565b9250827fffffffffffffffffffffffffffffffffffffffffffffffffffffffffffffffff0382111561287657612875612a79565b5b828201905092915050565b600061288c82612950565b915061289783612950565b9250826128a7576128a6612aa8565b5b828204905092915050565b60006128bd82612950565b91506128c883612950565b9250828210156128db576128da612a79565b5b828203905092915050565b60006128f182612930565b9050919050565b60008115159050919050565b60007fffffffff0000000000000000000000000000000000000000000000000000000082169050919050565b600073ffffffffffffffffffffffffffffffffffffffff82169050919050565b6000819050919050565b82818337600083830152505050565b60005b8381101561298757808201518184015260208101905061296c565b83811115612996576000848401525b50505050565b600060028204905060018216806129b457607f821691505b602082108114156129c8576129c7612ad7565b5b50919050565b6129d782612b35565b810181811067ffffffffffffffff821117156129f6576129f5612b06565b5b80604052505050565b6000612a0a82612950565b91507fffffffffffffffffffffffffffffffffffffffffffffffffffffffffffffffff821415612a3d57612a3c612a79565b5b600182019050919050565b6000612a5382612950565b9150612a5e83612950565b925082612a6e57612a6d612aa8565b5b828206905092915050565b7f4e487b7100000000000000000000000000000000000000000000000000000000600052601160045260246000fd5b7f4e487b7100000000000000000000000000000000000000000000000000000000600052601260045260246000fd5b7f4e487b7100000000000000000000000000000000000000000000000000000000600052602260045260246000fd5b7f4e487b7100000000000000000000000000000000000000000000000000000000600052604160045260246000fd5b6000601f19601f8301169050919050565b7f4552433732313a207472616e7366657220746f206e6f6e20455243373231526560008201527f63656976657220696d706c656d656e7465720000000000000000000000000000602082015250565b7f4f776e61626c653a206e6577206f776e657220697320746865207a65726f206160008201527f6464726573730000000000000000000000000000000000000000000000000000602082015250565b7f4552433732313a20746f6b656e20616c7265616479206d696e74656400000000600082015250565b7f4552433732313a207472616e7366657220746f20746865207a65726f2061646460008201527f7265737300000000000000000000000000000000000000000000000000000000602082015250565b7f4552433732313a20617070726f766520746f2063616c6c657200000000000000600082015250565b7f4552433732313a206f70657261746f7220717565727920666f72206e6f6e657860008201527f697374656e7420746f6b656e0000000000000000000000000000000000000000602082015250565b7f4552433732313a20617070726f76652063616c6c6572206973206e6f74206f7760008201527f6e6572206e6f7220617070726f76656420666f7220616c6c0000000000000000602082015250565b7f4552433732313a2062616c616e636520717565727920666f7220746865207a6560008201527f726f206164647265737300000000000000000000000000000000000000000000602082015250565b7f4552433732313a206f776e657220717565727920666f72206e6f6e657869737460008201527f656e7420746f6b656e0000000000000000000000000000000000000000000000602082015250565b7f45524337323155524953746f726167653a2055524920736574206f66206e6f6e60008201527f6578697374656e7420746f6b656e000000000000000000000000000000000000602082015250565b7f4552433732313a206d696e7420746f20746865207a65726f2061646472657373600082015250565b7f45524337323155524953746f726167653a2055524920717565727920666f722060008201527f6e6f6e6578697374656e7420746f6b656e000000000000000000000000000000602082015250565b7f4552433732313a20617070726f76656420717565727920666f72206e6f6e657860008201527f697374656e7420746f6b656e0000000000000000000000000000000000000000602082015250565b7f4f776e61626c653a2063616c6c6572206973206e6f7420746865206f776e6572600082015250565b7f4552433732313a207472616e73666572206f6620746f6b656e2074686174206960008201527f73206e6f74206f776e0000000000000000000000000000000000000000000000602082015250565b7f4552433732314d657461646174613a2055524920717565727920666f72206e6f60008201527f6e6578697374656e7420746f6b656e0000000000000000000000000000000000602082015250565b7f4552433732313a20617070726f76616c20746f2063757272656e74206f776e6560008201527f7200000000000000000000000000000000000000000000000000000000000000602082015250565b7f4552433732313a207472616e736665722063616c6c6572206973206e6f74206f60008201527f776e6572206e6f7220617070726f766564000000000000000000000000000000602082015250565b613045816128e6565b811461305057600080fd5b50565b61305c816128f8565b811461306757600080fd5b50565b61307381612904565b811461307e57600080fd5b50565b61308a81612950565b811461309557600080fd5b5056fea2646970667358221220c76fe5f22d161778ab68c5d5c692a9d760f76741699df017d9ee6a7fcf024f6664736f6c63430008020033",
  "linkReferences": {},
  "deployedLinkReferences": {}
}